:020000040000FA
:1000000060080020350100004F0100005101000090
:1000100000000000000000000000000000000000E0
:10002000000000000000000000000000530100007C
:100030000000000000000000550100005701000012
:10004000590100005901000081020000090200006E
:100050005901000000000000590100005901000092
:100060005901000059010000590100005901000028
:100070005901000059010000590100005901000018
:100080005901000059010000590100005901000008
:1000900059010000590100005901000059010000F8
:1000A000590100005901000000000000000000009C
:1000B0000000000000000000000000000000000040
:1000C0000348854600F052F8004800470309000045
:1000D00060080020401E00BF00BF00BF00BF00BF7F
:1000E00000BF00BF00BF00BF00BF00BF00BFF1D115
:1000F00070470000401E00BF00BF00BF00BF00BF30
:1001000000BF00BF00BF00BF00BF00BF00BFF1D1F4
:1001100070470000401E00BF00BF00BF00BF00BF0F
:1001200000BF00BF00BF00BF00BF00BF00BFF1D1D4
:10013000704700000321094802680A43026008482A
:1001400002680A4302600748804707480047FEE705
:10015000FEE7FEE7FEE7FEE7FEE7000024050040BD
:10016000540500401D020000C1000000064C01259E
:10017000064E05E0E36807CC2B430C3C984710344F
:10018000B442F7D3FFF7A0FF301300005013000074
:1001900010B5002819DA1A4A03071B0F083B9B0801
:1001A0009B00D2588307DC0EFF23A3409A438B07A2
:1001B0001B0E8407E40EA3401A43114B0407240FBF
:1001C000083CA408A4001A5118E00E4A03231B029D
:1001D000D21883089B00D2588307DC0EFF23A3406C
:1001E0009A438B071B0E8407E40EA3401A43054B6A
:1001F000032424021B198408A4001A5110BD000016
:100200001CED00E000E100E010B50249024800F0FA
:1002100077F810BD180000200030004010B500F045
:1002200003F9002805D0104810494860C813104948
:10023000886100F0DDF8002802D001200D498860B7
:1002400000F028F900280ED00B480068012807D0DC
:100250000A480949086000BF074800680128FBD127
:10026000C0200549486110BDDFFF07C00005004000
:10027000006C00400006004000EC06407593000052
:1002800010B500F081FF10BD02E008C8121F08C1C0
:10029000002AFAD170477047002001E001C1121F07
:1002A000002AFBD17047000000BF00BF00BF00BFA5
:1002B00000BFBFF34F8F00BF00BF00BF0648074914
:1002C000C86000BF00BF00BFBFF34F8F00BF00BFBB
:1002D00000BF00BF00BFFDE70400FA0500ED00E02D
:1002E0003EB50446002000900190029002946A46B8
:1002F00000210248FFF7D8FF3EBD0000014000008A
:100300007FB505460C462120005D2021095D009146
:10031000019022462632D11E2846E36900F0B6FD40
:10032000002800D07FBD2320005D00282AD1207B3B
:10033000022802D0207B032824D1E1692069814270
:1003400020D16069E061E17B202001552021A06976
:100350000840410921200155207B03280AD1212092
:10036000005D00902020035D29462046E26900F0F0
:1003700023FE3BE02020035D29462046E26900F091
:100380000FFD33E062692169E06801AB07C32320F8
:10039000005D00281AD000BF0922D201AA18516CB2
:1003A0000922D201AA18516400BF08460221014067
:1003B000002903D001216A46117006E004210140A2
:1003C000002902D002216A46117002E0002069462D
:1003D00008700021242001550421A069084000284C
:1003E00003D1684622686168904700BF00BF99E763
:1003F0000C48008CC0B2012812D10A48808C00073A
:10040000000F00280CD10748806AF02108404028DE
:1004100006D10448C06A0840002801D10120704775
:100420000020FCE7C00F00F01948008CC0B2012882
:100430002CD11748808C0007000F002826D11448C3
:10044000806AF0210840002806D11148C06A08409F
:10045000002801D1012070470D48806AF021084032
:10046000102806D10A48C06A0840002801D101209E
:10047000F1E70748806AF0210840302806D1044897
:10048000C06A0840002801D10120E4E70020E2E72B
:10049000C00F00F01348008CC0B201281FD11148D2
:1004A000808C0007000F002819D10E48806AF021C7
:1004B0000840A02806D10B48C06A0840002801D196
:1004C000012070470748806AF0210840D02806D1F3
:1004D0000448C06A0840002801D10120F1E700204B
:1004E000EFE70000C00F00F000B5FF2000F076F944
:1004F00000BD000070B505460C461646012C05DD12
:100500003A48007808210843384908703848047090
:1005100038480570002E07D0012C05D133480078EB
:100520000421084331490870642000F017FA2F486D
:1005300000781021084000281CD10221032000F07F
:1005400037F9052000F00AFA0221032000F030F903
:100550009620FFF7DFFD0221032000F029F9962005
:10056000FFF7D8FD0221084600F022F99620FFF798
:10057000D1FD1DE01D49097820221143084600F0F5
:1005800048F8052000F0EAF91849097820221143BB
:10059000084600F03EF89620FFF7BCFD13490978A5
:1005A00020221143084600F034F89620FFF7B2FDF0
:1005B0000E49097820221143084600F02AF83C2011
:1005C000FFF7A8FD04200C49087000F029F800F09E
:1005D00017F80220094908700978042211430846D7
:1005E00000F017F8FFF780FF70BD00000D0000203D
:1005F00010000020110000200E0000200F0000203D
:1006000010B5012000F005F87D200001FFF782FD04
:1006100010BD10B504460021204600F0C9F810BDF9
:1006200010B5064800780421084304490870097889
:10063000082211430846FFF7ECFF10BD0E00002012
:1006400070B504460D46164600F042F8324629467B
:100650002046FFF74FFF70BDF0B5069D059C144E78
:1006600030700026134F3E70134F3E70134F3E7094
:1006700001268E40124F3E7001269640114F3E706B
:1006800001269E40104F3E700126A6400F4F3E703F
:100690000126AE407E700127079EB740FEB20B4F89
:1006A000BE700127089EB740FEB2084FFE70F0BD35
:1006B000030000200400002005000020120000209C
:1006C000060000200700002008000020090000208C
:1006D0007CB5002600F018FB0020019000BF1048F8
:1006E00000780028FBD10120034601AA20210090B8
:1006F0000C4800F0D5F9044600BF2546002D04D073
:1007000000BF2846FFF7ECFD00BF00BF01200449F1
:100710000870002004490870012630467CBD0000A6
:1007200002000020181300000D000020FFB584B067
:100730000DACF0CC039702960195009404A80FC865
:10074000FFF78AFF1299119800F068F808B0F0BD21
:100750007CB505461348007828436946087111485E
:100760000178284688436946487100BF0E480078E2
:100770000028FBD10120022301AA202100900B4870
:1007800000F08EF9044600BF2646002E04D000BFBC
:100790003046FFF7A5FD00BF00BF012002490870E9
:1007A0007CBD00000600002002000020181300009D
:1007B00070B504460D46022D05D12007000F00211B
:1007C00000F03EF808E02011294600F039F8200733
:1007D000000F294600F034F870BD00000C4909787C
:1007E000002913D00B490978002901D1002805DC24
:1007F00008490978012906D1002804D1044909785B
:10080000054A117002E00021034A11707047000090
:1008100004000020120000200500002010B504464E
:100820000B460120A04004490870044803700020D2
:10083000FFF7D4FF10BD00000400002012000020CC
:1008400070B504460D460026002009E0E107C90FF7
:10085000002902D00A49095C0E436410411CC8B249
:100860000428F3DB012D01D1064805782846064906
:100870000978084306433046FFF76AFF70BD000061
:100880000900002008000020050000207CB5054676
:100890000C4614A00068019013A000680090134853
:1008A0000078844203DB11480078401EC4B210482F
:1008B000007810280CD10D480078042808D169462A
:1008C000095D491980221143C8B2FFF7A2FE07E073
:1008D00001A9095D491980221143C8B2FFF799FEA9
:1008E0007CBD000000401454004010501000002057
:1008F0001100002010B5044601212046FFF758FFE3
:1009000010BD86B001200721032202230293039227
:1009100004910590002106230522009101900421F5
:100920002020FFF703FF002204211420FFF788FE98
:1009300002210020FFF7AAFF4B20FFF7DBFF692011
:10094000FFF7D8FF7220FFF7D5FF6220FFF7D2FF35
:100950007920FFF7CFFF00BFFEE7000001B505E0FB
:100960000098401E00900348FFF7B4FB0098002851
:10097000F6D108BDE703000070B504460D462946D0
:100980002046FFF705FC00BFE106C90E01208840A4
:100990000549086000BF00BFE106C90E012088407C
:1009A0000249086000BF70BD80E200E000E100E0A5
:1009B00001460803020E50B27047000010B50279DC
:1009C00028235A43064BD118026800BF05231C0296
:1009D0001419236000BF02232222535410BD0000CB
:1009E00018000020FFB581B006460C461746307946
:1009F00028214843274945182220405D002802D07D
:100A0000082005B0F0BD002C03D130790001224947
:100A100044182F60049868600020A86000212520F9
:100A20004155242041552146304600F005F91B4828
:100A300005210907072212028918226892008850AE
:100A4000052109070722120289186268920088505E
:100A500030682268616805231B02C3189A60052369
:100A60001B02C318D96000BFA168052212028218B8
:100A7000516200BF2868002806D03068FFF798FF51
:100A80000090217BFFF778FF0121222041550020B3
:100A9000B7E7000018000020FC1200000C06000060
:100AA000FFB583B00C4615461E460C9F00200090F3
:100AB000019002906846447086700195002F01D025
:100AC000202000E0002002466946039800F002F86A
:100AD00007B0F0BDF8B504460E461546002720794C
:100AE00028214843084940180090A807800F002893
:100AF00001D00620F8BD2B4632462168009800F050
:100B0000B1FA07463846F5E7180000200121814078
:100B1000014AD1607047000000050050012181406A
:100B2000014A91607047000000050050024650588D
:100B3000002801D0012070470020FCE7002242502D
:100B4000704703221202821891607047032212023A
:100B500082185160704701225202115070470122E1
:100B60004250704701460922D2018A1810680922B2
:100B7000D2018A181060704702465058002801D0F0
:100B8000012070470020FCE70022425070470322FA
:100B9000120282189160704702460320000210186A
:100BA00040680840002801D0012070470020FCE781
:100BB000012242507047000010B51448C07D002843
:100BC0000BD1FF2109311248FFF7DEFF00BF1048AB
:100BD000052109024018806910BDFF2109310C4828
:100BE000FFF7D2FF00BF0A480521090240188069BB
:100BF000C0B20649C968054A527E88540348407EFF
:100C0000401C0249487600BFE6E700004000002093
:100C1000002000407FB504460D460120694608705B
:100C20006846047201950348016842686846904727
:100C30007FBD00004000002070B506460C462A48E3
:100C4000052109070722120289182268920088509C
:100C5000052109070722120289186268920088504C
:100C60002068FFF75BFF6068FFF758FF1E48401CD5
:100C7000052109070722120289182268920088506C
:100C8000052109070722120289186268920088501C
:100C90000420FFF72FFA002518E06068134909695E
:100CA000C140C907C90F002903D0002D00D170BD74
:100CB0000EE02068FFF72AFF0420FFF71BFA2068E8
:100CC000FFF72CFF0420FFF715FA6D1C092DE4DB5C
:100CD00000BF6068FFF71AFF0420FFF70BFA606897
:100CE000FFF71CFF00BFE2E70C0600000005005004
:100CF0000278002A02D1034B1A7000E000BF00BF47
:100D000070470000020000207FB50E4B0FCB6C46F1
:100D10000FC400230C4A69460C48FFF763FE0446E3
:100D200000BF2546002D04D000BF2846FFF7D8FAA3
:100D300000BF00BF0548FFF741FE002004490870CE
:100D40007FBD000020130000F10C0000181300000C
:100D500002000020F8B506460F4615461C462078CE
:100D6000A8421BDA00BF0520000230188069C0B21B
:100D7000217878542078401C20702178681E8142A8
:100D800004D102213046FFF7E6FE03E02078A842B6
:100D900000D1F8BD20213046FFF7E1FE00BFF8E7A3
:100DA000FEB504460E4617461D4600200290FF2160
:100DB00005313046FFF7C2FEFF2125313046FFF7EF
:100DC000BDFEFF211D313046FFF7B8FEFF2109317E
:100DD0003046FFF7B3FE00212620015523200155A0
:100DE000012D04D102213046FFF7B5FE03E00121B9
:100DF0003046FFF7B0FE20213046FFF7B0FE00215D
:100E00003046FFF7ACFE2068002806D00D48A060F1
:100E1000A1683046FFF79AFE12E000BF00203B4673
:100E200022462632D11E00950190304600F02EF861
:100E30000028F3D12320005D002801D00320029078
:100E40000298FEBD86020000F8B505460E4617461C
:100E50001C462078B8420ADA2178705C0521090224
:100E60006918C86100BF2078401C20700CE006980B
:100E7000002805D01C212846FFF771FE0020F8BD90
:100E800014212846FFF76BFE0120F8E7FFB581B07B
:100E90000C4615460A9F2078012802D02878B842CF
:100EA00001D1012600E00026207800280FD0FF2184
:100EB00025310198FFF742FEFF211D310198FFF710
:100EC0003DFEFF2109310198FFF738FE62E0FF2166
:100ED00025310198FFF72AFE00280BD0FF2125318C
:100EE0000198FFF72BFE14210198FFF738FE01202F
:100EF00020704FE0FF211D310198FFF717FE0028F9
:100F000023D0FF211D310198FFF718FEFF21253165
:100F10000198FFF70BFE00280BD0FF212531019827
:100F2000FFF70CFE14210198FFF719FE0120207035
:100F300030E00B982B463A46009004990198FFF751
:100F400083FF002826D105B0F0BDFF2109310198AB
:100F5000FFF7ECFD00281DD0FF2109310198FFF7B4
:100F6000EDFDFF2125310198FFF7E0FD00280BD0B2
:100F7000FF2125310198FFF7E1FD14210198FFF7CA
:100F8000EEFD0120207005E02B463A4604990198B9
:100F9000FFF7E0FE002E0DD0FF2105310198FFF78D
:100FA000C5FD002806D0FF2105310198FFF7C6FDD9
:100FB0000020C8E70120C6E7FEB504460F461546E7
:100FC0001E4600200290FF2105313846FFF7B6FD8E
:100FD000FF2125313846FFF7B1FDFF211D3138468D
:100FE000FFF7ACFDFF2109313846FFF7A7FD0021CF
:100FF0003846FFF7B0FD002126200155232001557A
:1010000020213846FFF7ABFD08213846FFF7A7FD42
:101010000898234626333246294600903846FFF783
:1010200013FF2068002806D00D48A060A16838464C
:10103000FFF78CFD12E000BF08982B4622462632AF
:10104000D11E009601903846FFF720FF0028F3D10B
:101050002320005D002801D0032002900298FEBDED
:1010600086020000FEB504460F4615461E460020C7
:101070000190411E3846FFF764FD2420005D0028E2
:1010800005D0A1683846FFF761FD1120FEBD0420A0
:101090003040002801D1012100E000212420015529
:1010A00008203040002801D00620EFE7A66128463E
:1010B00007C862612161E060A97820200155686855
:1010C000E06168780B21C9017918886000BF287831
:1010D000012815D02878002803D12020304000288E
:1010E00001D0012100E0002121200155005D009088
:1010F000AB78394620466A68FFF75EFF019009E049
:10110000002121200155AB78394620466A68FFF757
:1011100047FE01902068002802D1002124200155BB
:101120000198B3E710B5FF211D310A48FFF72CFDE8
:10113000094880680849898A445C0748808A401CBD
:101140000549888220460349052212028918C86190
:1011500000BF10BD00200040400000201FB5044625
:10116000002069460870684604720648806801904D
:10117000002004498875084601684268684690471F
:101180001FBD0000400000207FB5012149025948E1
:10119000FFF702FD002830D0FF2125315548FFF729
:1011A000EBFC002829D0FF2125315248FFF7ECFC49
:1011B000812189004F48FFF7EAFC4F48807E0028D4
:1011C00003D104214B48FFF7F3FC02206946087065
:1011D0004848FFF7C7FC03904748C17D6846017245
:1011E0004548C068019000204349C8750876084604
:1011F00001684268684690473EE004213D48FFF799
:10120000CBFC002838D0FF2109313A48FFF7B4FC65
:10121000002831D0FFF7D0FC3748C07D3649497EE1
:10122000884229D13448007E002810D03248C46852
:10123000457E007E3049C87508460069C8600020B8
:101240000876487621462846FFF7E4FC14E02A4851
:10125000807E002803D104212648FFF7A9FC8121C4
:1012600089002448FFF793FC00202349C8750A46EB
:10127000D168507EFFF7CEFCFF211D311D48FFF7DE
:101280007BFC002815D01C48808A1B49897D884238
:1012900002DAFFF747FF0CE0FF211D311548FFF789
:1012A00073FC1548807D002803D01349887DFFF723
:1012B00055FFFF2145310F48FFF75EFC002818D08D
:1012C000FF2145310B48FFF75FFC0B48807E00286B
:1012D00003D000210748FFF76BFC0748C07D0028BA
:1012E00007D000200449C8750A46D168507EFFF730
:1012F00091FC7FBD0020004040000020070000005E
:101300001E00000000009801030000000100000022
:10131000000000000000000000300040000000005D
:10132000070000001E0000000000980101000000FE
:101330005013000000000020180000008802000088
:101340006813000018000020480800009802000000
:10135000010000000000000000000000000000008C
:08136000000000000024F4006D
:04000005000000C136
:00000001FF
