:020000040001F9
:10B00000E028002035B101004FB1010051B101002D
:10B010000000000000000000000000000000000030
:10B0200000000000000000000000000053B101001B
:10B03000000000000000000055B1010057B1010000
:10B0400059B1010059B10100E5B3010091B101000E
:10B0500059B101000000000059B1010059B10100CF
:10B0600059B1010059B1010059B1010059B10100B4
:10B0700059B1010059B1010059B1010059B10100A4
:10B0800059B1010059B1010059B1010059B1010094
:10B0900059B1010059B1010059B1010059B1010084
:10B0A00059B1010059B1010000000000000000008A
:10B0B0000000000000000000000000000000000090
:10B0C0000348854600F052F8004800474BB801009D
:10B0D000E0280020401E00BF00BF00BF00BF00BF2F
:10B0E00000BF00BF00BF00BF00BF00BF00BFF1D165
:10B0F00070470000401E00BF00BF00BF00BF00BF80
:10B1000000BF00BF00BF00BF00BF00BF00BFF1D144
:10B1100070470000401E00BF00BF00BF00BF00BF5F
:10B1200000BF00BF00BF00BF00BF00BF00BFF1D124
:10B13000704700000321094802680A43026008487A
:10B1400002680A4302600748804707480047FEE755
:10B15000FEE7FEE7FEE7FEE7FEE70000240500400D
:10B160005405004019B30100C1B00100064C01258F
:10B17000064E05E0E36807CC2B430C3C984710349F
:10B18000B442F7D3FFF7A0FF40BD010060BD01004E
:10B19000F0B55A4C8BB0254620356A782978019253
:10B1A00000915548AA1DE3690646D11E089200F099
:10B1B00047FD002830D1E978002979D1227B022A85
:10B1C00001D0032A74D12369E2699A4270D161697E
:10B1D000E161E27B2A70217E494B8906CF0F6F70B7
:10B1E000217B03291AD0E1690291274645492C7831
:10B1F00048604862C8618860A871012C43D0012171
:10B200001960012131623160396800293ED03E4821
:10B21000B860B8683D4948600BB0F0BDE269029281
:10B220002146384A2C7850605062D0619060186096
:10B23000A87101203062B060089B029A0393002C31
:10B2400004D9334D1278EA61187004E0002F01D060
:10B25000F06100E070610868002806D02A48886024
:10B2600088682A4948600BB0F0BD0D462335019728
:10B27000009429463046029B039A00F0E1FC002826
:10B28000F5D10BB0F0BD02211960BAE7394626317D
:10B290000546233703910195009439463046029BB9
:10B2A000039A00F0CDFC0028F5D10BB0F0BDFFE70C
:10B2B00066692369E26809960893079200290ED00F
:10B2C000144A516C51648A0703D501216A461176EC
:10B2D00007E0490705D502216A46117601E0694673
:10B2E00008762871207E4007DFD4226806A86168AE
:10B2F00090470BB0F0BD00000030004098200020C7
:10B30000003200400031004086020000003300405F
:10B3100000350040803400402B48018CC9B201291F
:10B3200017D1828C120714D1028D1206130F03D18C
:10B33000838D1B061B0F0FD0120F012A03D1838DA3
:10B340001B061B0F08D0032A03D1828D1206120F91
:10B3500002D0012907D012E01D4B1C4A5A60DA13B3
:10B360001C4B9A6102E0828C120708D1028D1206F2
:10B37000120F042A03D1828D1206120F0AD001295E
:10B3800021D1818C09071ED1018D0906090F0A29D7
:10B3900004D007E0104A01219160F5E7828D120682
:10B3A000120F05D00D290ED1808D0006000F0AD195
:10B3B0000A480168012904D009490160016801298E
:10B3C000FCD1C02141617047C00F00F0DFFF07C012
:10B3D00000050040006C00400006004000EC064004
:10B3E00075930000F0B54F4885B040684E4C81051C
:10B3F0002768A67EE37D00256268E068BC460029D8
:10B400001DDA4A4F796A002919D07D6281274549A2
:10B41000BF008F60002E02D1454F01267E600227BB
:10B420006E463770434F3E683E6003966E463372F9
:10B430000190E575257661466846904738E03949C0
:10B440004968490734D5394FB968002930D0002BF5
:10B45000BD60394FBF6904D0617E4754677E7F1C51
:10B460006776677EBB4223D1217E00290DD0637EA3
:10B47000E1752169E16025766576012669460E70E1
:10B480000B7201906146684611E0002E02D1284BF4
:10B49000012159608121234B89009960E575617E06
:10B4A00001266B461E7019720190614668469047EE
:10B4B0001E49C869002819D0A28AA07DCD618242A8
:10B4C00008D2A18AA068415CA08A401CA0821A48C8
:10B4D000C1610BE0002809D069460D700872A068B0
:10B4E0000190A575626868462168904713484168D5
:10B4F000002915D04560A07E002802D00C4901200B
:10B500000860E07D00280BD0E575607E01236A4667
:10B51000E168137010720191626868462168904773
:10B5200005B0F0BD00230040C020002000210040F5
:10B5300000200040802400400025004040210040C1
:10B5400002E008C8121F08C1002AFAD170477047EC
:10B55000002001E001C1121F002AFBD1704700004A
:10B56000BFF34F8F04490348C860BFF34F8F00BF3C
:10B57000FDE700000400FA0500ED00E000B583B02F
:10B580000021029000916A4601910248FFF7E8FF0E
:10B5900003B000BD0140000070B50825354C0129FD
:10B5A00002D9E3792B43E371A1720425E072002AEA
:10B5B00004D0012902D1E0792843E071642000F031
:10B5C00073F9E0792026C10600291CDB0320002145
:10B5D00000F0CAF8052000F067F90320002100F010
:10B5E000C3F89620FFF796FD0320002100F0BCF879
:10B5F0009620FFF78FFD0220002100F0B5F896207D
:10B60000FFF788FD13E0304300F036F8052000F026
:10B610004BF9E079304300F02FF89620FFF77AFDE0
:10B62000E079304300F028F89620FFF773FDE079C9
:10B63000304300F021F83C20FFF76CFD25720C2010
:10B6400000F01AF8012000F017F87D200001FFF744
:10B6500061FD02206072062000F00EF8A07800283C
:10B6600004D0217B002902D00020E07070BDE07082
:10B6700070BD00008020002070B504460025000940
:10B68000294600F071F82007000F294600F06CF8F9
:10B6900070BD0000F7B5164B17460FCB86B002AC55
:10B6A0000FC400231A4602A9124800F04FF90028DF
:10B6B00001D0FFF763FF0F4800F038F90E4C00256A
:10B6C0002570684605710126334601AA20210948E4
:10B6D000009600F0D5F9002801D0FFF74FFF267043
:10B6E000E5713A4607990698FFF756FF09B0F0BD95
:10B6F00030BD010028BD010080200020F0B5059C70
:10B70000069FA646164C079E089D60700020E070BC
:10B71000BC46012007468F40014691402771617168
:10B7200001469940A171714602468A400D4967461B
:10B730000A700246BA404A700246B2408A70024617
:10B74000AA40CA70099A0A9990400006000EA0709B
:10B75000217304D0002902D0012900D1E070F0BD8E
:10B76000802000208D20002010B50022174B82B0D1
:10B77000C40700D01A784008C40701D05C7822437F
:10B780004008C40701D09C7822434008C00701D07C
:10B79000D87802430E48012900D18179C378007915
:10B7A000194311430B4603436A4613718143517198
:10B7B00001200090022301AA2021064800F060F930
:10B7C000002801D0FFF7DAFE02B010BD8D20002066
:10B7D0008020002028BD010010B512A282B012689E
:10B7E000009211A21268114B01929A7A914201D3F0
:10B7F000511EC9B2DC7A8023102C01D1042A08D052
:10B800006A46515C08181843C0B2FFF735FF02B012
:10B8100010BD01AA515C08181843C0B2FFF72CFFF5
:10B8200002B010BD00401454004010508020002091
:10B8300070B50446012500092946FFF795FF20074A
:10B84000000F2946FFF790FF70BD86B0642000F01E
:10B850002BF80120072104910590032202230021E7
:10B8600002930392009101900623052204212020D7
:10B87000FFF744FF002204211420FFF70BFF0021F3
:10B880000846FFF7A9FF4B20FFF7D2FF6920FFF71B
:10B89000CFFF7220FFF7CCFF6220FFF7C9FF7920AE
:10B8A000FFF7C6FFFEE7000031B50098002809D079
:10B8B000054C00992046491E0091FFF70BFC0099AA
:10B8C0000029F6D138BD0000E70300008207D30E3F
:10B8D000FF229A408907090E10B4994000280BDA1C
:10B8E00003071B0F083B9C080C4BA400E318DC6902
:10B8F00094430C43DC6107E08408094BA400E4187E
:10B90000236893430B432360C106C90E012088407E
:10B91000044908600449086010BC704700ED00E06D
:10B9200000E400E080E200E000E100E0017928228C
:10B930005143054A0068891805221302C0180260A5
:10B94000022020318870704798200020FFB583B016
:10B9500003980C4601792820434D48434019009034
:10B96000203001908078002802D0082007B0F0BD78
:10B97000002C02D108013D4944180098026000984B
:10B98000436000990020886001994871019908710D
:10B99000216837488A00374952181060626892005F
:10B9A00052181060012720783B46334D83403A46B9
:10B9B000AB6020798240AA60226830489200521819
:10B9C000106062689200511808600420FFF792FB33
:10B9D000002620792969C140C80702D0002E1CD05A
:10B9E00010E02078012739468140E9600420FFF704
:10B9F00081FB20788740AF600420FFF77BFB761C3B
:10BA0000092EE6DB2079012631468140E9600420D9
:10BA1000FFF770FB20798640AE60206814498200F1
:10BA2000144812181160626892001018016003989F
:10BA3000052300681B02C018626821688160C2602B
:10BA4000A168416200980068002806D00398217B15
:10BA50000068000B40B2FFF739FF019901208870A0
:10BA6000002007B0F0BD0000982000200CBD0100B0
:10BA70000C06000000070050000500500D060000F5
:10BA800030B583B00025069C009502956D4669701F
:10BA9000AB700192002C01D0202200E00022294648
:10BAA00000F002F803B030BDF0B5037928246343F9
:10BAB000614C89B01C19930718D10568581E0323DF
:10BAC0001B02EB18986020462030844605900079D0
:10BAD000002804D0A0685860112009B0F0BD5007BC
:10BAE000C017059E401C3071100702D5062009B012
:10BAF000F0BDA2618F684E68086867612661E060EA
:10BB000005988E78067048680B26E061F601487843
:10BB1000AE19B0600878012851D0002801D19006F4
:10BB200001D5012600E0002605984670486802907D
:10BB30008F78002001460690E81DF930416041628F
:10BB4000C1618160012252025151604607908171AA
:10BB5000C17001202862A860224626320492117822
:10BB60000298B94208D2405C052109026918C861EF
:10BB70001078401C107006E0002E02D00120E86111
:10BB800001E0012068612068002804D02B48A060F3
:10BB9000A068586043E02046233003900097019648
:10BBA0002846029B049A039900F04AF80028F5D130
:10BBB0000798C078002832D0032006902FE000229A
:10BBC0000598EF1D4270486804908E78F937069208
:10BBD0007A607A62FA61BA60604607908271C270D8
:10BBE000012E25D001204102485101202862286001
:10BBF00020680028CAD1204626300390C01E174670
:10BC00000290019700962846049B039A029900F03F
:10BC100017F80028F5D10798C0780028CCD1216802
:10BC20000698002900D062E7059A117109B0F0BDAD
:10BC3000022001024851D8E7982000208602000027
:10BC4000F0B49C460B78049D012B02D01478AC42D2
:10BC500001D1012700E00027C41DF934002B04D0D6
:10BC600000206062E061A06043E0636A002B25D1A0
:10BC7000E369052636028619002B17D00023E361FD
:10BC8000636A002B1AD113780599AB4206D260463D
:10BC9000C05CF0611078401C10702AE0002902D0CE
:10BCA0000121C1612CE00121416122E0A368002B48
:10BCB0001FD00023A360636A002B05D000226262BC
:10BCC000012242610A7014E013786146AB4210D23F
:10BCD000B669CE541178491CC9B211706A1E9142DE
:10BCE00003D102210A02115001E0A94201D0012131
:10BCF0000162002F07D06068002804D00020606037
:10BD0000F0BC00207047F0BC012070470700000025
:10BD10001E00000000009801030000000100000068
:10BD200000000000000000000030004000000000A3
:10BD3000070000001E000000000098010100000044
:10BD400060BD0100802000201800000040B5010007
:10BD500078BD0100982000204808000050B501007F
:10BD600000000000000000000000000000000000D3
:08BD7000000000000024F400B3
:040000050001B0C185
:00000001FF
